{"contracts/StatusContract.sol":{"StatusContract":{"abi":[{"anonymous":false,"inputs":[{"indexed":true,"internalType":"address","name":"user","type":"address"},{"indexed":false,"internalType":"string","name":"newStatus","type":"string"},{"indexed":false,"internalType":"uint256","name":"timestamp","type":"uint256"}],"name":"StatusUpdated","type":"event"},{"inputs":[{"internalType":"address","name":"_user","type":"address"}],"name":"getStatus","outputs":[{"internalType":"string","name":"","type":"string"}],"stateMutability":"view","type":"function"},{"inputs":[{"internalType":"string","name":"_status","type":"string"}],"name":"setStatus","outputs":[],"stateMutability":"nonpayable","type":"function"},{"inputs":[{"internalType":"address","name":"","type":"address"}],"name":"statuses","outputs":[{"internalType":"string","name":"","type":"string"}],"stateMutability":"view","type":"function"}],"evm":{"bytecode":{"linkReferences":{},"object":"608060405234801561001057600080fd5b50610a22806100206000396000f3fe608060405234801561001057600080fd5b50600436106100415760003560e01c806330ccebb5146100465780637d2211d614610076578063af11c1f014610092575b600080fd5b610060600480360381019061005b91906103d6565b6100c2565b60405161006d9190610493565b60405180910390f35b610090600480360381019061008b91906105ea565b6101e0565b005b6100ac60048036038101906100a791906103d6565b6102c4565b6040516100b99190610493565b60405180910390f35b606060008060008473ffffffffffffffffffffffffffffffffffffffff1673ffffffffffffffffffffffffffffffffffffffff168152602001908152602001600020805461010f90610662565b80601f016020809104026020016040519081016040528092919081815260200182805461013b90610662565b80156101885780601f1061015d57610100808354040283529160200191610188565b820191906000526020600020905b81548152906001019060200180831161016b57829003601f168201915b5050505050905060008151036101d6576040518060400160405280600d81526020017f4e6f2053746174757320596574000000000000000000000000000000000000008152509150506101db565b809150505b919050565b608c81511115610225576040517f08c379a000000000000000000000000000000000000000000000000000000000815260040161021c90610705565b60405180910390fd5b806000803373ffffffffffffffffffffffffffffffffffffffff1673ffffffffffffffffffffffffffffffffffffffff168152602001908152602001600020908161027091906108db565b503373ffffffffffffffffffffffffffffffffffffffff167fe34cbd33ad07d4c250de679ecb334eeaf389274e3aa46a896b9261db79e2c15c82426040516102b99291906109bc565b60405180910390a250565b600060205280600052604060002060009150905080546102e390610662565b80601f016020809104026020016040519081016040528092919081815260200182805461030f90610662565b801561035c5780601f106103315761010080835404028352916020019161035c565b820191906000526020600020905b81548152906001019060200180831161033f57829003601f168201915b505050505081565b6000604051905090565b600080fd5b600080fd5b600073ffffffffffffffffffffffffffffffffffffffff82169050919050565b60006103a382610378565b9050919050565b6103b381610398565b81146103be57600080fd5b50565b6000813590506103d0816103aa565b92915050565b6000602082840312156103ec576103eb61036e565b5b60006103fa848285016103c1565b91505092915050565b600081519050919050565b600082825260208201905092915050565b60005b8381101561043d578082015181840152602081019050610422565b60008484015250505050565b6000601f19601f8301169050919050565b600061046582610403565b61046f818561040e565b935061047f81856020860161041f565b61048881610449565b840191505092915050565b600060208201905081810360008301526104ad818461045a565b905092915050565b600080fd5b600080fd5b7f4e487b7100000000000000000000000000000000000000000000000000000000600052604160045260246000fd5b6104f782610449565b810181811067ffffffffffffffff82111715610516576105156104bf565b5b80604052505050565b6000610529610364565b905061053582826104ee565b919050565b600067ffffffffffffffff821115610555576105546104bf565b5b61055e82610449565b9050602081019050919050565b82818337600083830152505050565b600061058d6105888461053a565b61051f565b9050828152602081018484840111156105a9576105a86104ba565b5b6105b484828561056b565b509392505050565b600082601f8301126105d1576105d06104b5565b5b81356105e184826020860161057a565b91505092915050565b600060208284031215610600576105ff61036e565b5b600082013567ffffffffffffffff81111561061e5761061d610373565b5b61062a848285016105bc565b91505092915050565b7f4e487b7100000000000000000000000000000000000000000000000000000000600052602260045260246000fd5b6000600282049050600182168061067a57607f821691505b60208210810361068d5761068c610633565b5b50919050565b7f537461747573206973206f76657220746865206d61782063686172616374657260008201527f20616d6f756e742e000000000000000000000000000000000000000000000000602082015250565b60006106ef60288361040e565b91506106fa82610693565b604082019050919050565b6000602082019050818103600083015261071e816106e2565b9050919050565b60008190508160005260206000209050919050565b60006020601f8301049050919050565b600082821b905092915050565b6000600883026107877fffffffffffffffffffffffffffffffffffffffffffffffffffffffffffffffff8261074a565b610791868361074a565b95508019841693508086168417925050509392505050565b6000819050919050565b6000819050919050565b60006107d86107d36107ce846107a9565b6107b3565b6107a9565b9050919050565b6000819050919050565b6107f2836107bd565b6108066107fe826107df565b848454610757565b825550505050565b600090565b61081b61080e565b6108268184846107e9565b505050565b5b8181101561084a5761083f600082610813565b60018101905061082c565b5050565b601f82111561088f5761086081610725565b6108698461073a565b81016020851015610878578190505b61088c6108848561073a565b83018261082b565b50505b505050565b600082821c905092915050565b60006108b260001984600802610894565b1980831691505092915050565b60006108cb83836108a1565b9150826002028217905092915050565b6108e482610403565b67ffffffffffffffff8111156108fd576108fc6104bf565b5b6109078254610662565b61091282828561084e565b600060209050601f8311600181146109455760008415610933578287015190505b61093d85826108bf565b8655506109a5565b601f19841661095386610725565b60005b8281101561097b57848901518255600182019150602085019450602081019050610956565b868310156109985784890151610994601f8916826108a1565b8355505b6001600288020188555050505b505050505050565b6109b6816107a9565b82525050565b600060408201905081810360008301526109d6818561045a565b90506109e560208301846109ad565b939250505056fea2646970667358221220151859e1aa9bca9582f5ac66faa0ae0154a9e28ab1b6e37a5649822fbfc7b48264736f6c63430008180033","opcodes":"PUSH1 0x80 PUSH1 0x40 MSTORE CALLVALUE DUP1 ISZERO PUSH2 0x10 JUMPI PUSH1 0x0 DUP1 REVERT JUMPDEST POP PUSH2 0xA22 DUP1 PUSH2 0x20 PUSH1 0x0 CODECOPY PUSH1 0x0 RETURN INVALID PUSH1 0x80 PUSH1 0x40 MSTORE CALLVALUE DUP1 ISZERO PUSH2 0x10 JUMPI PUSH1 0x0 DUP1 REVERT JUMPDEST POP PUSH1 0x4 CALLDATASIZE LT PUSH2 0x41 JUMPI PUSH1 0x0 CALLDATALOAD PUSH1 0xE0 SHR DUP1 PUSH4 0x30CCEBB5 EQ PUSH2 0x46 JUMPI DUP1 PUSH4 0x7D2211D6 EQ PUSH2 0x76 JUMPI DUP1 PUSH4 0xAF11C1F0 EQ PUSH2 0x92 JUMPI JUMPDEST PUSH1 0x0 DUP1 REVERT JUMPDEST PUSH2 0x60 PUSH1 0x4 DUP1 CALLDATASIZE SUB DUP2 ADD SWAP1 PUSH2 0x5B SWAP2 SWAP1 PUSH2 0x3D6 JUMP JUMPDEST PUSH2 0xC2 JUMP JUMPDEST PUSH1 0x40 MLOAD PUSH2 0x6D SWAP2 SWAP1 PUSH2 0x493 JUMP JUMPDEST PUSH1 0x40 MLOAD DUP1 SWAP2 SUB SWAP1 RETURN JUMPDEST PUSH2 0x90 PUSH1 0x4 DUP1 CALLDATASIZE SUB DUP2 ADD SWAP1 PUSH2 0x8B SWAP2 SWAP1 PUSH2 0x5EA JUMP JUMPDEST PUSH2 0x1E0 JUMP JUMPDEST STOP JUMPDEST PUSH2 0xAC PUSH1 0x4 DUP1 CALLDATASIZE SUB DUP2 ADD SWAP1 PUSH2 0xA7 SWAP2 SWAP1 PUSH2 0x3D6 JUMP JUMPDEST PUSH2 0x2C4 JUMP JUMPDEST PUSH1 0x40 MLOAD PUSH2 0xB9 SWAP2 SWAP1 PUSH2 0x493 JUMP JUMPDEST PUSH1 0x40 MLOAD DUP1 SWAP2 SUB SWAP1 RETURN JUMPDEST PUSH1 0x60 PUSH1 0x0 DUP1 PUSH1 0x0 DUP5 PUSH20 0xFFFFFFFFFFFFFFFFFFFFFFFFFFFFFFFFFFFFFFFF AND PUSH20 0xFFFFFFFFFFFFFFFFFFFFFFFFFFFFFFFFFFFFFFFF AND DUP2 MSTORE PUSH1 0x20 ADD SWAP1 DUP2 MSTORE PUSH1 0x20 ADD PUSH1 0x0 KECCAK256 DUP1 SLOAD PUSH2 0x10F SWAP1 PUSH2 0x662 JUMP JUMPDEST DUP1 PUSH1 0x1F ADD PUSH1 0x20 DUP1 SWAP2 DIV MUL PUSH1 0x20 ADD PUSH1 0x40 MLOAD SWAP1 DUP2 ADD PUSH1 0x40 MSTORE DUP1 SWAP3 SWAP2 SWAP1 DUP2 DUP2 MSTORE PUSH1 0x20 ADD DUP3 DUP1 SLOAD PUSH2 0x13B SWAP1 PUSH2 0x662 JUMP JUMPDEST DUP1 ISZERO PUSH2 0x188 JUMPI DUP1 PUSH1 0x1F LT PUSH2 0x15D JUMPI PUSH2 0x100 DUP1 DUP4 SLOAD DIV MUL DUP4 MSTORE SWAP2 PUSH1 0x20 ADD SWAP2 PUSH2 0x188 JUMP JUMPDEST DUP3 ADD SWAP2 SWAP1 PUSH1 0x0 MSTORE PUSH1 0x20 PUSH1 0x0 KECCAK256 SWAP1 JUMPDEST DUP2 SLOAD DUP2 MSTORE SWAP1 PUSH1 0x1 ADD SWAP1 PUSH1 0x20 ADD DUP1 DUP4 GT PUSH2 0x16B JUMPI DUP3 SWAP1 SUB PUSH1 0x1F AND DUP3 ADD SWAP2 JUMPDEST POP POP POP POP POP SWAP1 POP PUSH1 0x0 DUP2 MLOAD SUB PUSH2 0x1D6 JUMPI PUSH1 0x40 MLOAD DUP1 PUSH1 0x40 ADD PUSH1 0x40 MSTORE DUP1 PUSH1 0xD DUP2 MSTORE PUSH1 0x20 ADD PUSH32 0x4E6F205374617475732059657400000000000000000000000000000000000000 DUP2 MSTORE POP SWAP2 POP POP PUSH2 0x1DB JUMP JUMPDEST DUP1 SWAP2 POP POP JUMPDEST SWAP2 SWAP1 POP JUMP JUMPDEST PUSH1 0x8C DUP2 MLOAD GT ISZERO PUSH2 0x225 JUMPI PUSH1 0x40 MLOAD PUSH32 0x8C379A000000000000000000000000000000000000000000000000000000000 DUP2 MSTORE PUSH1 0x4 ADD PUSH2 0x21C SWAP1 PUSH2 0x705 JUMP JUMPDEST PUSH1 0x40 MLOAD DUP1 SWAP2 SUB SWAP1 REVERT JUMPDEST DUP1 PUSH1 0x0 DUP1 CALLER PUSH20 0xFFFFFFFFFFFFFFFFFFFFFFFFFFFFFFFFFFFFFFFF AND PUSH20 0xFFFFFFFFFFFFFFFFFFFFFFFFFFFFFFFFFFFFFFFF AND DUP2 MSTORE PUSH1 0x20 ADD SWAP1 DUP2 MSTORE PUSH1 0x20 ADD PUSH1 0x0 KECCAK256 SWAP1 DUP2 PUSH2 0x270 SWAP2 SWAP1 PUSH2 0x8DB JUMP JUMPDEST POP CALLER PUSH20 0xFFFFFFFFFFFFFFFFFFFFFFFFFFFFFFFFFFFFFFFF AND PUSH32 0xE34CBD33AD07D4C250DE679ECB334EEAF389274E3AA46A896B9261DB79E2C15C DUP3 TIMESTAMP PUSH1 0x40 MLOAD PUSH2 0x2B9 SWAP3 SWAP2 SWAP1 PUSH2 0x9BC JUMP JUMPDEST PUSH1 0x40 MLOAD DUP1 SWAP2 SUB SWAP1 LOG2 POP JUMP JUMPDEST PUSH1 0x0 PUSH1 0x20 MSTORE DUP1 PUSH1 0x0 MSTORE PUSH1 0x40 PUSH1 0x0 KECCAK256 PUSH1 0x0 SWAP2 POP SWAP1 POP DUP1 SLOAD PUSH2 0x2E3 SWAP1 PUSH2 0x662 JUMP JUMPDEST DUP1 PUSH1 0x1F ADD PUSH1 0x20 DUP1 SWAP2 DIV MUL PUSH1 0x20 ADD PUSH1 0x40 MLOAD SWAP1 DUP2 ADD PUSH1 0x40 MSTORE DUP1 SWAP3 SWAP2 SWAP1 DUP2 DUP2 MSTORE PUSH1 0x20 ADD DUP3 DUP1 SLOAD PUSH2 0x30F SWAP1 PUSH2 0x662 JUMP JUMPDEST DUP1 ISZERO PUSH2 0x35C JUMPI DUP1 PUSH1 0x1F LT PUSH2 0x331 JUMPI PUSH2 0x100 DUP1 DUP4 SLOAD DIV MUL DUP4 MSTORE SWAP2 PUSH1 0x20 ADD SWAP2 PUSH2 0x35C JUMP JUMPDEST DUP3 ADD SWAP2 SWAP1 PUSH1 0x0 MSTORE PUSH1 0x20 PUSH1 0x0 KECCAK256 SWAP1 JUMPDEST DUP2 SLOAD DUP2 MSTORE SWAP1 PUSH1 0x1 ADD SWAP1 PUSH1 0x20 ADD DUP1 DUP4 GT PUSH2 0x33F JUMPI DUP3 SWAP1 SUB PUSH1 0x1F AND DUP3 ADD SWAP2 JUMPDEST POP POP POP POP POP DUP2 JUMP JUMPDEST PUSH1 0x0 PUSH1 0x40 MLOAD SWAP1 POP SWAP1 JUMP JUMPDEST PUSH1 0x0 DUP1 REVERT JUMPDEST PUSH1 0x0 DUP1 REVERT JUMPDEST PUSH1 0x0 PUSH20 0xFFFFFFFFFFFFFFFFFFFFFFFFFFFFFFFFFFFFFFFF DUP3 AND SWAP1 POP SWAP2 SWAP1 POP JUMP JUMPDEST PUSH1 0x0 PUSH2 0x3A3 DUP3 PUSH2 0x378 JUMP JUMPDEST SWAP1 POP SWAP2 SWAP1 POP JUMP JUMPDEST PUSH2 0x3B3 DUP2 PUSH2 0x398 JUMP JUMPDEST DUP2 EQ PUSH2 0x3BE JUMPI PUSH1 0x0 DUP1 REVERT JUMPDEST POP JUMP JUMPDEST PUSH1 0x0 DUP2 CALLDATALOAD SWAP1 POP PUSH2 0x3D0 DUP2 PUSH2 0x3AA JUMP JUMPDEST SWAP3 SWAP2 POP POP JUMP JUMPDEST PUSH1 0x0 PUSH1 0x20 DUP3 DUP5 SUB SLT ISZERO PUSH2 0x3EC JUMPI PUSH2 0x3EB PUSH2 0x36E JUMP JUMPDEST JUMPDEST PUSH1 0x0 PUSH2 0x3FA DUP5 DUP3 DUP6 ADD PUSH2 0x3C1 JUMP JUMPDEST SWAP2 POP POP SWAP3 SWAP2 POP POP JUMP JUMPDEST PUSH1 0x0 DUP2 MLOAD SWAP1 POP SWAP2 SWAP1 POP JUMP JUMPDEST PUSH1 0x0 DUP3 DUP3 MSTORE PUSH1 0x20 DUP3 ADD SWAP1 POP SWAP3 SWAP2 POP POP JUMP JUMPDEST PUSH1 0x0 JUMPDEST DUP4 DUP2 LT ISZERO PUSH2 0x43D JUMPI DUP1 DUP3 ADD MLOAD DUP2 DUP5 ADD MSTORE PUSH1 0x20 DUP2 ADD SWAP1 POP PUSH2 0x422 JUMP JUMPDEST PUSH1 0x0 DUP5 DUP5 ADD MSTORE POP POP POP POP JUMP JUMPDEST PUSH1 0x0 PUSH1 0x1F NOT PUSH1 0x1F DUP4 ADD AND SWAP1 POP SWAP2 SWAP1 POP JUMP JUMPDEST PUSH1 0x0 PUSH2 0x465 DUP3 PUSH2 0x403 JUMP JUMPDEST PUSH2 0x46F DUP2 DUP6 PUSH2 0x40E JUMP JUMPDEST SWAP4 POP PUSH2 0x47F DUP2 DUP6 PUSH1 0x20 DUP7 ADD PUSH2 0x41F JUMP JUMPDEST PUSH2 0x488 DUP2 PUSH2 0x449 JUMP JUMPDEST DUP5 ADD SWAP2 POP POP SWAP3 SWAP2 POP POP JUMP JUMPDEST PUSH1 0x0 PUSH1 0x20 DUP3 ADD SWAP1 POP DUP2 DUP2 SUB PUSH1 0x0 DUP4 ADD MSTORE PUSH2 0x4AD DUP2 DUP5 PUSH2 0x45A JUMP JUMPDEST SWAP1 POP SWAP3 SWAP2 POP POP JUMP JUMPDEST PUSH1 0x0 DUP1 REVERT JUMPDEST PUSH1 0x0 DUP1 REVERT JUMPDEST PUSH32 0x4E487B7100000000000000000000000000000000000000000000000000000000 PUSH1 0x0 MSTORE PUSH1 0x41 PUSH1 0x4 MSTORE PUSH1 0x24 PUSH1 0x0 REVERT JUMPDEST PUSH2 0x4F7 DUP3 PUSH2 0x449 JUMP JUMPDEST DUP2 ADD DUP2 DUP2 LT PUSH8 0xFFFFFFFFFFFFFFFF DUP3 GT OR ISZERO PUSH2 0x516 JUMPI PUSH2 0x515 PUSH2 0x4BF JUMP JUMPDEST JUMPDEST DUP1 PUSH1 0x40 MSTORE POP POP POP JUMP JUMPDEST PUSH1 0x0 PUSH2 0x529 PUSH2 0x364 JUMP JUMPDEST SWAP1 POP PUSH2 0x535 DUP3 DUP3 PUSH2 0x4EE JUMP JUMPDEST SWAP2 SWAP1 POP JUMP JUMPDEST PUSH1 0x0 PUSH8 0xFFFFFFFFFFFFFFFF DUP3 GT ISZERO PUSH2 0x555 JUMPI PUSH2 0x554 PUSH2 0x4BF JUMP JUMPDEST JUMPDEST PUSH2 0x55E DUP3 PUSH2 0x449 JUMP JUMPDEST SWAP1 POP PUSH1 0x20 DUP2 ADD SWAP1 POP SWAP2 SWAP1 POP JUMP JUMPDEST DUP3 DUP2 DUP4 CALLDATACOPY PUSH1 0x0 DUP4 DUP4 ADD MSTORE POP POP POP JUMP JUMPDEST PUSH1 0x0 PUSH2 0x58D PUSH2 0x588 DUP5 PUSH2 0x53A JUMP JUMPDEST PUSH2 0x51F JUMP JUMPDEST SWAP1 POP DUP3 DUP2 MSTORE PUSH1 0x20 DUP2 ADD DUP5 DUP5 DUP5 ADD GT ISZERO PUSH2 0x5A9 JUMPI PUSH2 0x5A8 PUSH2 0x4BA JUMP JUMPDEST JUMPDEST PUSH2 0x5B4 DUP5 DUP3 DUP6 PUSH2 0x56B JUMP JUMPDEST POP SWAP4 SWAP3 POP POP POP JUMP JUMPDEST PUSH1 0x0 DUP3 PUSH1 0x1F DUP4 ADD SLT PUSH2 0x5D1 JUMPI PUSH2 0x5D0 PUSH2 0x4B5 JUMP JUMPDEST JUMPDEST DUP2 CALLDATALOAD PUSH2 0x5E1 DUP5 DUP3 PUSH1 0x20 DUP7 ADD PUSH2 0x57A JUMP JUMPDEST SWAP2 POP POP SWAP3 SWAP2 POP POP JUMP JUMPDEST PUSH1 0x0 PUSH1 0x20 DUP3 DUP5 SUB SLT ISZERO PUSH2 0x600 JUMPI PUSH2 0x5FF PUSH2 0x36E JUMP JUMPDEST JUMPDEST PUSH1 0x0 DUP3 ADD CALLDATALOAD PUSH8 0xFFFFFFFFFFFFFFFF DUP2 GT ISZERO PUSH2 0x61E JUMPI PUSH2 0x61D PUSH2 0x373 JUMP JUMPDEST JUMPDEST PUSH2 0x62A DUP5 DUP3 DUP6 ADD PUSH2 0x5BC JUMP JUMPDEST SWAP2 POP POP SWAP3 SWAP2 POP POP JUMP JUMPDEST PUSH32 0x4E487B7100000000000000000000000000000000000000000000000000000000 PUSH1 0x0 MSTORE PUSH1 0x22 PUSH1 0x4 MSTORE PUSH1 0x24 PUSH1 0x0 REVERT JUMPDEST PUSH1 0x0 PUSH1 0x2 DUP3 DIV SWAP1 POP PUSH1 0x1 DUP3 AND DUP1 PUSH2 0x67A JUMPI PUSH1 0x7F DUP3 AND SWAP2 POP JUMPDEST PUSH1 0x20 DUP3 LT DUP2 SUB PUSH2 0x68D JUMPI PUSH2 0x68C PUSH2 0x633 JUMP JUMPDEST JUMPDEST POP SWAP2 SWAP1 POP JUMP JUMPDEST PUSH32 0x537461747573206973206F76657220746865206D617820636861726163746572 PUSH1 0x0 DUP3 ADD MSTORE PUSH32 0x20616D6F756E742E000000000000000000000000000000000000000000000000 PUSH1 0x20 DUP3 ADD MSTORE POP JUMP JUMPDEST PUSH1 0x0 PUSH2 0x6EF PUSH1 0x28 DUP4 PUSH2 0x40E JUMP JUMPDEST SWAP2 POP PUSH2 0x6FA DUP3 PUSH2 0x693 JUMP JUMPDEST PUSH1 0x40 DUP3 ADD SWAP1 POP SWAP2 SWAP1 POP JUMP JUMPDEST PUSH1 0x0 PUSH1 0x20 DUP3 ADD SWAP1 POP DUP2 DUP2 SUB PUSH1 0x0 DUP4 ADD MSTORE PUSH2 0x71E DUP2 PUSH2 0x6E2 JUMP JUMPDEST SWAP1 POP SWAP2 SWAP1 POP JUMP JUMPDEST PUSH1 0x0 DUP2 SWAP1 POP DUP2 PUSH1 0x0 MSTORE PUSH1 0x20 PUSH1 0x0 KECCAK256 SWAP1 POP SWAP2 SWAP1 POP JUMP JUMPDEST PUSH1 0x0 PUSH1 0x20 PUSH1 0x1F DUP4 ADD DIV SWAP1 POP SWAP2 SWAP1 POP JUMP JUMPDEST PUSH1 0x0 DUP3 DUP3 SHL SWAP1 POP SWAP3 SWAP2 POP POP JUMP JUMPDEST PUSH1 0x0 PUSH1 0x8 DUP4 MUL PUSH2 0x787 PUSH32 0xFFFFFFFFFFFFFFFFFFFFFFFFFFFFFFFFFFFFFFFFFFFFFFFFFFFFFFFFFFFFFFFF DUP3 PUSH2 0x74A JUMP JUMPDEST PUSH2 0x791 DUP7 DUP4 PUSH2 0x74A JUMP JUMPDEST SWAP6 POP DUP1 NOT DUP5 AND SWAP4 POP DUP1 DUP7 AND DUP5 OR SWAP3 POP POP POP SWAP4 SWAP3 POP POP POP JUMP JUMPDEST PUSH1 0x0 DUP2 SWAP1 POP SWAP2 SWAP1 POP JUMP JUMPDEST PUSH1 0x0 DUP2 SWAP1 POP SWAP2 SWAP1 POP JUMP JUMPDEST PUSH1 0x0 PUSH2 0x7D8 PUSH2 0x7D3 PUSH2 0x7CE DUP5 PUSH2 0x7A9 JUMP JUMPDEST PUSH2 0x7B3 JUMP JUMPDEST PUSH2 0x7A9 JUMP JUMPDEST SWAP1 POP SWAP2 SWAP1 POP JUMP JUMPDEST PUSH1 0x0 DUP2 SWAP1 POP SWAP2 SWAP1 POP JUMP JUMPDEST PUSH2 0x7F2 DUP4 PUSH2 0x7BD JUMP JUMPDEST PUSH2 0x806 PUSH2 0x7FE DUP3 PUSH2 0x7DF JUMP JUMPDEST DUP5 DUP5 SLOAD PUSH2 0x757 JUMP JUMPDEST DUP3 SSTORE POP POP POP POP JUMP JUMPDEST PUSH1 0x0 SWAP1 JUMP JUMPDEST PUSH2 0x81B PUSH2 0x80E JUMP JUMPDEST PUSH2 0x826 DUP2 DUP5 DUP5 PUSH2 0x7E9 JUMP JUMPDEST POP POP POP JUMP JUMPDEST JUMPDEST DUP2 DUP2 LT ISZERO PUSH2 0x84A JUMPI PUSH2 0x83F PUSH1 0x0 DUP3 PUSH2 0x813 JUMP JUMPDEST PUSH1 0x1 DUP2 ADD SWAP1 POP PUSH2 0x82C JUMP JUMPDEST POP POP JUMP JUMPDEST PUSH1 0x1F DUP3 GT ISZERO PUSH2 0x88F JUMPI PUSH2 0x860 DUP2 PUSH2 0x725 JUMP JUMPDEST PUSH2 0x869 DUP5 PUSH2 0x73A JUMP JUMPDEST DUP2 ADD PUSH1 0x20 DUP6 LT ISZERO PUSH2 0x878 JUMPI DUP2 SWAP1 POP JUMPDEST PUSH2 0x88C PUSH2 0x884 DUP6 PUSH2 0x73A JUMP JUMPDEST DUP4 ADD DUP3 PUSH2 0x82B JUMP JUMPDEST POP POP JUMPDEST POP POP POP JUMP JUMPDEST PUSH1 0x0 DUP3 DUP3 SHR SWAP1 POP SWAP3 SWAP2 POP POP JUMP JUMPDEST PUSH1 0x0 PUSH2 0x8B2 PUSH1 0x0 NOT DUP5 PUSH1 0x8 MUL PUSH2 0x894 JUMP JUMPDEST NOT DUP1 DUP4 AND SWAP2 POP POP SWAP3 SWAP2 POP POP JUMP JUMPDEST PUSH1 0x0 PUSH2 0x8CB DUP4 DUP4 PUSH2 0x8A1 JUMP JUMPDEST SWAP2 POP DUP3 PUSH1 0x2 MUL DUP3 OR SWAP1 POP SWAP3 SWAP2 POP POP JUMP JUMPDEST PUSH2 0x8E4 DUP3 PUSH2 0x403 JUMP JUMPDEST PUSH8 0xFFFFFFFFFFFFFFFF DUP2 GT ISZERO PUSH2 0x8FD JUMPI PUSH2 0x8FC PUSH2 0x4BF JUMP JUMPDEST JUMPDEST PUSH2 0x907 DUP3 SLOAD PUSH2 0x662 JUMP JUMPDEST PUSH2 0x912 DUP3 DUP3 DUP6 PUSH2 0x84E JUMP JUMPDEST PUSH1 0x0 PUSH1 0x20 SWAP1 POP PUSH1 0x1F DUP4 GT PUSH1 0x1 DUP2 EQ PUSH2 0x945 JUMPI PUSH1 0x0 DUP5 ISZERO PUSH2 0x933 JUMPI DUP3 DUP8 ADD MLOAD SWAP1 POP JUMPDEST PUSH2 0x93D DUP6 DUP3 PUSH2 0x8BF JUMP JUMPDEST DUP7 SSTORE POP PUSH2 0x9A5 JUMP JUMPDEST PUSH1 0x1F NOT DUP5 AND PUSH2 0x953 DUP7 PUSH2 0x725 JUMP JUMPDEST PUSH1 0x0 JUMPDEST DUP3 DUP2 LT ISZERO PUSH2 0x97B JUMPI DUP5 DUP10 ADD MLOAD DUP3 SSTORE PUSH1 0x1 DUP3 ADD SWAP2 POP PUSH1 0x20 DUP6 ADD SWAP5 POP PUSH1 0x20 DUP2 ADD SWAP1 POP PUSH2 0x956 JUMP JUMPDEST DUP7 DUP4 LT ISZERO PUSH2 0x998 JUMPI DUP5 DUP10 ADD MLOAD PUSH2 0x994 PUSH1 0x1F DUP10 AND DUP3 PUSH2 0x8A1 JUMP JUMPDEST DUP4 SSTORE POP JUMPDEST PUSH1 0x1 PUSH1 0x2 DUP9 MUL ADD DUP9 SSTORE POP POP POP JUMPDEST POP POP POP POP POP POP JUMP JUMPDEST PUSH2 0x9B6 DUP2 PUSH2 0x7A9 JUMP JUMPDEST DUP3 MSTORE POP POP JUMP JUMPDEST PUSH1 0x0 PUSH1 0x40 DUP3 ADD SWAP1 POP DUP2 DUP2 SUB PUSH1 0x0 DUP4 ADD MSTORE PUSH2 0x9D6 DUP2 DUP6 PUSH2 0x45A JUMP JUMPDEST SWAP1 POP PUSH2 0x9E5 PUSH1 0x20 DUP4 ADD DUP5 PUSH2 0x9AD JUMP JUMPDEST SWAP4 SWAP3 POP POP POP JUMP INVALID LOG2 PUSH5 0x6970667358 0x22 SLT KECCAK256 ISZERO XOR MSIZE 0xE1 0xAA SWAP12 0xCA SWAP6 DUP3 CREATE2 0xAC PUSH7 0xFAA0AE0154A9E2 DUP11 0xB1 0xB6 0xE3 PUSH27 0x5649822FBFC7B48264736F6C634300081800330000000000000000 "},"methodIdentifiers":{"getStatus(address)":"30ccebb5","setStatus(string)":"7d2211d6","statuses(address)":"af11c1f0"}}}}}