{
  "_format": "hh-sol-artifact-1",
  "contractName": "StatusContract",
  "sourceName": "contracts/StatusContract.sol",
  "abi": [
    {
      "anonymous": false,
      "inputs": [
        {
          "indexed": true,
          "internalType": "address",
          "name": "user",
          "type": "address"
        },
        {
          "indexed": false,
          "internalType": "string",
          "name": "newStatus",
          "type": "string"
        },
        {
          "indexed": false,
          "internalType": "uint256",
          "name": "timestamp",
          "type": "uint256"
        }
      ],
      "name": "StatusUpdated",
      "type": "event"
    },
    {
      "inputs": [
        {
          "internalType": "address",
          "name": "_user",
          "type": "address"
        }
      ],
      "name": "getStatus",
      "outputs": [
        {
          "internalType": "string",
          "name": "",
          "type": "string"
        }
      ],
      "stateMutability": "view",
      "type": "function"
    },
    {
      "inputs": [
        {
          "internalType": "string",
          "name": "_status",
          "type": "string"
        }
      ],
      "name": "setStatus",
      "outputs": [],
      "stateMutability": "nonpayable",
      "type": "function"
    },
    {
      "inputs": [
        {
          "internalType": "address",
          "name": "",
          "type": "address"
        }
      ],
      "name": "statuses",
      "outputs": [
        {
          "internalType": "string",
          "name": "",
          "type": "string"
        }
      ],
      "stateMutability": "view",
      "type": "function"
    }
  ],
  "bytecode": "0x608060405234801561001057600080fd5b50610a22806100206000396000f3fe608060405234801561001057600080fd5b50600436106100415760003560e01c806330ccebb5146100465780637d2211d614610076578063af11c1f014610092575b600080fd5b610060600480360381019061005b91906103d6565b6100c2565b60405161006d9190610493565b60405180910390f35b610090600480360381019061008b91906105ea565b6101e0565b005b6100ac60048036038101906100a791906103d6565b6102c4565b6040516100b99190610493565b60405180910390f35b606060008060008473ffffffffffffffffffffffffffffffffffffffff1673ffffffffffffffffffffffffffffffffffffffff168152602001908152602001600020805461010f90610662565b80601f016020809104026020016040519081016040528092919081815260200182805461013b90610662565b80156101885780601f1061015d57610100808354040283529160200191610188565b820191906000526020600020905b81548152906001019060200180831161016b57829003601f168201915b5050505050905060008151036101d6576040518060400160405280600d81526020017f4e6f2053746174757320596574000000000000000000000000000000000000008152509150506101db565b809150505b919050565b608c81511115610225576040517f08c379a000000000000000000000000000000000000000000000000000000000815260040161021c90610705565b60405180910390fd5b806000803373ffffffffffffffffffffffffffffffffffffffff1673ffffffffffffffffffffffffffffffffffffffff168152602001908152602001600020908161027091906108db565b503373ffffffffffffffffffffffffffffffffffffffff167fe34cbd33ad07d4c250de679ecb334eeaf389274e3aa46a896b9261db79e2c15c82426040516102b99291906109bc565b60405180910390a250565b600060205280600052604060002060009150905080546102e390610662565b80601f016020809104026020016040519081016040528092919081815260200182805461030f90610662565b801561035c5780601f106103315761010080835404028352916020019161035c565b820191906000526020600020905b81548152906001019060200180831161033f57829003601f168201915b505050505081565b6000604051905090565b600080fd5b600080fd5b600073ffffffffffffffffffffffffffffffffffffffff82169050919050565b60006103a382610378565b9050919050565b6103b381610398565b81146103be57600080fd5b50565b6000813590506103d0816103aa565b92915050565b6000602082840312156103ec576103eb61036e565b5b60006103fa848285016103c1565b91505092915050565b600081519050919050565b600082825260208201905092915050565b60005b8381101561043d578082015181840152602081019050610422565b60008484015250505050565b6000601f19601f8301169050919050565b600061046582610403565b61046f818561040e565b935061047f81856020860161041f565b61048881610449565b840191505092915050565b600060208201905081810360008301526104ad818461045a565b905092915050565b600080fd5b600080fd5b7f4e487b7100000000000000000000000000000000000000000000000000000000600052604160045260246000fd5b6104f782610449565b810181811067ffffffffffffffff82111715610516576105156104bf565b5b80604052505050565b6000610529610364565b905061053582826104ee565b919050565b600067ffffffffffffffff821115610555576105546104bf565b5b61055e82610449565b9050602081019050919050565b82818337600083830152505050565b600061058d6105888461053a565b61051f565b9050828152602081018484840111156105a9576105a86104ba565b5b6105b484828561056b565b509392505050565b600082601f8301126105d1576105d06104b5565b5b81356105e184826020860161057a565b91505092915050565b600060208284031215610600576105ff61036e565b5b600082013567ffffffffffffffff81111561061e5761061d610373565b5b61062a848285016105bc565b91505092915050565b7f4e487b7100000000000000000000000000000000000000000000000000000000600052602260045260246000fd5b6000600282049050600182168061067a57607f821691505b60208210810361068d5761068c610633565b5b50919050565b7f537461747573206973206f76657220746865206d61782063686172616374657260008201527f20616d6f756e742e000000000000000000000000000000000000000000000000602082015250565b60006106ef60288361040e565b91506106fa82610693565b604082019050919050565b6000602082019050818103600083015261071e816106e2565b9050919050565b60008190508160005260206000209050919050565b60006020601f8301049050919050565b600082821b905092915050565b6000600883026107877fffffffffffffffffffffffffffffffffffffffffffffffffffffffffffffffff8261074a565b610791868361074a565b95508019841693508086168417925050509392505050565b6000819050919050565b6000819050919050565b60006107d86107d36107ce846107a9565b6107b3565b6107a9565b9050919050565b6000819050919050565b6107f2836107bd565b6108066107fe826107df565b848454610757565b825550505050565b600090565b61081b61080e565b6108268184846107e9565b505050565b5b8181101561084a5761083f600082610813565b60018101905061082c565b5050565b601f82111561088f5761086081610725565b6108698461073a565b81016020851015610878578190505b61088c6108848561073a565b83018261082b565b50505b505050565b600082821c905092915050565b60006108b260001984600802610894565b1980831691505092915050565b60006108cb83836108a1565b9150826002028217905092915050565b6108e482610403565b67ffffffffffffffff8111156108fd576108fc6104bf565b5b6109078254610662565b61091282828561084e565b600060209050601f8311600181146109455760008415610933578287015190505b61093d85826108bf565b8655506109a5565b601f19841661095386610725565b60005b8281101561097b57848901518255600182019150602085019450602081019050610956565b868310156109985784890151610994601f8916826108a1565b8355505b6001600288020188555050505b505050505050565b6109b6816107a9565b82525050565b600060408201905081810360008301526109d6818561045a565b90506109e560208301846109ad565b939250505056fea2646970667358221220151859e1aa9bca9582f5ac66faa0ae0154a9e28ab1b6e37a5649822fbfc7b48264736f6c63430008180033",
  "linkReferences": {},
  "deployedLinkReferences": {}
}